:1000000011C02BC02AC029C028C027C026C025C0C7
:1000100024C023C0CCC021C0C1C11FC01EC02573D5
:100020002F25730011241FBECFE5D2E0DEBFCDBF68
:1000300010E0A0E6B0E0E6ECFBE102C005900D9216
:10004000A237B107D9F711E0A2E7B0E001C01D92D5
:10005000AC3CB107E1F7BCD1B4CDD2CFA8950197A4
:1000600028F0E0EAFFE03197F1F7F8CF089572E069
:100070007A95F1F70197D9F7A895089588E08DB999
:10008000C59AC39A0895C3980895C39A089584E0C1
:1000900086BB86BB86BB86BB86BB86BB86BB86BB58
:1000A00086BB86BB86BB86BB86BB86BB86BB86BB48
:1000B00000008FB1089594E068B378E087FB65F99C
:1000C00068BB880F96BB96BB7A95C1F7C59A089511
:1000D000DC01FB0122E032E02E1B3F0B241B350B21
:1000E00084E0319788F086BB86BB86BB86BB86BB27
:1000F00086BB86BB86BB86BB86BB86BB86BB86BBF8
:1001000086BB86BB86BBEDCF109731F0C0DF8D93E9
:1001100041505040D9F736C08C9956958C994795E7
:10012000899956958999479560917600A0E9B0E044
:10013000A60FB11D8091A0018C3FE0F7A8DFEE274C
:100140008C9B03C0E82FA3DF8058F82F899B0BC03E
:100150009EDF99278C9B03C0982F99DF8058E90F69
:10016000F81FF795E795ED93FD93F8948091A00122
:100170008E5F8093A00178946E5F41505040B1F63D
:100180006093760084E086BB86BB86BB86BB86BB5D
:1001900086BB86BB86BB86BB86BB86BB86BB86BB57
:1001A00086BB86BB86BB2150304069F708958F938C
:1001B0008FB78F93EF93FF93E0917700FF27E0577E
:1001C000FF4F8091A001825048F08093A00181915F
:1001D0008EBD81918BBDE059E0937700FF91EF9147
:1001E0008F918FBF8F9118958A3019F48DE001D0CF
:1001F0008AE0FF93EF93E0917200F09173003097E3
:1002000009F00995EF91FF910895FC0185918030E7
:1002100011F0EADFFBCF0895FF27E0E230E247FF6D
:100220000CC0419597FF09C0EDE2609570958095EF
:100230009095611D711D811D911D27FF02C02195A3
:1002400030E350E2AA27660F771F881F991FAA1F65
:10025000A41710F0A41B63955A95A9F7AA3008F0CB
:10026000A95FA05DAF93F3956115710581059105B7
:1002700041F7ED3211F4EF93F395F21718F43F9331
:10028000F395FBCF8F91B0DFFA95E1F70895E991EF
:10029000F9918591803021F0853219F0A5DFF9CFF1
:1002A000089520E0E89455915532C1F3503311F48C
:1002B000689455915A3348F4505390F3220F022E0C
:1002C000220F220F200D250FF4CF0EF421958991D6
:1002D0009991533619F3533729F1533559F1BC012C
:1002E00088279927E8945C3621F48991999168943C
:1002F0005591543639F446EF7EF077FF0DC08FEFFD
:100300009FEF0AC055374AE039F0583540E121F0F7
:10031000523642E009F00895FF93EF937DDFEF91AD
:10032000FF91B7CFFF93EF93FC0181918030B9F338
:100330005BDFFBCFFF93EF9368DFF1CFDF93CF93CA
:10034000CDB7DEB72596A3DFCF91DF910895F701F2
:1003500081937F010895DF93CF93CDB7DEB72596C4
:10036000E0917200F0917300EF93FF93E7EAF1E000
:10037000E0937200F0937300FF92EF92E990F9908E
:1003800086DFF7011082EF90FF90FF91EF91E093ED
:100390007200F0937300CF91DF9108951895FF924A
:1003A0000F931F93892B21F400E8FF24FA9403C0D4
:1003B00000E0FF24F39410E80F0D0EBD0BBD84E6A2
:1003C00090E055DE1150C1F71F910F91FF900895F5
:1003D0002F923F924F925F926F927F928F929F9255
:1003E000AF92BF92CF92DF92EF92FF920F931F9343
:1003F000CF93DF9321B614BE8EE081BD89E288BB26
:100400008EE387BB789461E8662E60E0762EC0E9C3
:10041000D0E05EE1452E50E0552E81EA91E05FDAB2
:10042000882309F0F8C1A8951092900080E690E02A
:10043000A7D8882339F480E990E061E070E04EE8C5
:1004400050E003D980919000820D81BF80E991E056
:1004500067E670E041D8282F843029F047E6A42EC3
:1004600040E0B42ED5C180E991E06BE670E034D86D
:10047000282F3BE6A32E30E0B32ECAC1812C22E008
:10048000922E90E8392E80E991E060E070E045D648
:10049000282F82E0C82EB9C1A89580E991E068E7CD
:1004A00070E03BD6282F882309F0B2C180918100EB
:1004B000882349F380918000827171F781E890E090
:1004C0006CE670E064DB009739F3A8952DB73EB772
:1004D000285030400FB6F8943EBF0FBE2DBFEDB789
:1004E000FEB73196ADB7BEB71296DC93CE93119797
:1004F00053824282B582A482778266822CDF2DB736
:100500003EB7285F3F4F0FB6F8943EBF0FBE2DBFDA
:10051000CE0136D8282F882309F071C1CE016CE0B6
:1005200070E04EE850E091D8882309F074C18091C2
:100530008E0090918F000C9709F06DC1809198000A
:1005400090919900A0919A00B0919B008755914499
:10055000A645B54409F05FC1DD24A89580E990E087
:1005600068E070E04EE850E070D880918E00909185
:100570008F00089709F04FC1E0909400F09095002B
:1005800000919600109197008091900090919100B9
:10059000A0919200B09193008C3469E4960763E5D2
:1005A000A60764E5B60709F4B6C08D3429E49207BE
:1005B00023E5A20724E5B20778F486363DE69307E3
:1005C00034E7A30730E2B307B9F084549944A34554
:1005D000B04509F020C19FC0843621E6920724E788
:1005E000A20721E6B20709F463C086569146A346E6
:1005F000B44709F010C18FC0C70181709070892B7A
:1006000029F00894E11CF11C011D111DD801C7013E
:100610004097A109B10985359105A105B10508F0FB
:10062000FAC080E990E0B7014EE850E00ED8809122
:100630008E0090918F00A0E0B0E08E159F05A0077E
:10064000B10709F0E8C080919000813009F0E3C063
:10065000D09092008D2D8150823008F0DCC0D1BA4C
:1006600090919E00983019F0903109F0D4C081B378
:10067000892B81BB94FDDD0C209194003091950075
:100680004091960050919700DA01C90180549F4132
:10069000A040B04081549C49A040B04008F0BBC08D
:1006A00060E874E88EE190E050DA215029BD55CF22
:1006B000DD2009F4B0C080E0E81684E0F80680E0B0
:1006C000080780E0180708F4A6C08D2D90E0019778
:1006D0009C01442737FD4095542FDA01C9018E2132
:1006E0009F21A023B1230097A105B10509F093C074
:1006F0008091B7019091B801A091B901B091BA0170
:10070000282339234A235B2321153105410551054F
:1007100009F081C01AC0C70181709070892B29F03F
:100720000894E11CF11C011D111D8091B7019091ED
:10073000B801A091B901B091BA01E80EF91E0A1FE3
:100740001B1FC801B701BDD308CF1092A0011092A2
:1007500077001092760080B7882369F496E097BD01
:10076000A0E6ACBDB1E0B0BFCABCC3BE20E129BFAA
:1007700081E090E014DE8091B7019091B801917012
:10078000B401681B790B80E090E04EE850E05DD743
:1007900080918E0090918F00A0E0B0E0E81AF90AF5
:1007A0000A0B1B0BDD24D39408C080E09CEFAFEF55
:1007B000BFEFE80EF91E0A1F1B1FA89591E0E9166E
:1007C00094E0F90690E0090790E0190718F060E05E
:1007D00074E001C0B70180E090E04EE850E035D70A
:1007E000282F80918E0090918F008050944039F492
:1007F000DD0CB099DACFD394B1E0DB16B1F680917D
:10080000A0018823E1F73EBC3BBC222321F444CE67
:10081000222309F433CEA89513BE1ABC80B78823CF
:1008200029F080E090E0BBDD10BE1CBC8DE481BDF2
:1008300085B7877E806185BF85B7806285BF8895D3
:1008400085B78F7D85BFA8958EE081BDE6CDDF920F
:10085000EF92FF920F931F93D82E7A018B0187FF9F
:100860000AC087E740E050E060E070E0F0DF8230EF
:1008700050F58FE7D82209DC0ADC05DC08DC8D2D79
:100880001ADC812F9927AA27BB2715DCC801AA27C4
:10089000BB2711DCBB27A12F902F8F2D0CDC8E2DB9
:1008A0000ADC80E4D81611F485E906C088E4D8167D
:1008B00011F487E801C081E0FEDB1AE0E8DB87FF86
:1008C00002C01150D9F71F910F91FF90EF90DF9068
:1008D0000895CF92DF92EF92FF920F931F93CF93E1
:1008E000DF936C0179018091CB0183FD07C039E072
:1008F000440F551F661F771F3A95D1F781E5A7DF93
:10090000882381F4C0E3D5E7C2DB8F3F19F4219738
:10091000D9F708C08E3F31F4C601B701A801D8DB72
:1009200010E001C011E0B1DBB2DB812FDF91CF918C
:100930001F910F91FF90EF90DF90CF900895CF928D
:10094000DF92EF92FF920F931F93DF93CF9300D02C
:1009500000D0CDB7DEB792DB0AE010E098DB0150A3
:100960001040E1F790DB08E512E091DB0150104008
:10097000E1F780E440E050E060E070E068DF813063
:1009800009F05EC088E44AEA51E060E070E05FDFB1
:100990008130B1F56E010894C11CD11C76018E0125
:1009A0000B5F1F4F74DBF70181937F01E017F107A5
:1009B000C9F78B81813009F043C08C818A3A09F0F4
:1009C0003FC008EA11E603C001501040C9F189EEAA
:1009D00040E050E060E070E43ADF8823A9F746C0C9
:1009E00056DBF60181936F01EE15FF05C9F789818A
:1009F00086FD03C0E4E0FE2E24C07CE0F72E21C07B
:100A000089EE40E050E060E070E021DF823028F0C5
:100A1000FF24F39461E4E62E04C052E0F52E49EE83
:100A2000E42E08EA11E603C00150104049F08E2D73
:100A300040E050E060E070E00ADF8823A9F720C0C2
:100A4000FF24F092CB0121DB22DB80E0FF2009F4C0
:100A500081E00F900F900F900F90CF91DF911F9139
:100A60000F91FF90EF90DF90CF9008958AE740E0DC
:100A700050E060E070E0EBDE882309F4B1CFE0CF16
:100A800080E540E052E060E070E0E1DE8823C1F6FE
:100A9000D8CFCF92DF92EF92FF920F931F93CF9315
:100AA000DF936C01C0917400D0917500FC0111823C
:100AB00010822481358146815781213031054105DD
:100AC000510509F45AC08E819F81A885B9852817E0
:100AD00039074A075B0708F050C021153105410569
:100AE000510539F48881833021F42E853F8548896A
:100AF0005989F601208731874287538721153105AF
:100B00004105510579F18EEFE82E8FEFF82E8FEF2A
:100B1000082F8FEF182FE20EF31E041F151F8E8172
:100B20009F81A885B9850297A109B109E816F90640
:100B30000A071B0728F020E030E040E050E016C034
:100B40002A8130E040E050E0C801B701E5D79B01C1
:100B5000AC018A899B89AC89BD89280F391F4A1F3E
:100B60005B1F04C02E853F8548895989F60124877B
:100B700035874687578780E001C081E0DF91CF91BC
:100B80001F910F91FF90EF90DF90CF9008956F929B
:100B90007F928F929F92AF92BF92CF92DF92EF920D
:100BA000FF920F931F93DF93CF9300D000D0CDB768
:100BB000DEB74B015C01609074007090750082E0BC
:100BC00088169104A104B10408F4B0C0F301868131
:100BD0009781A085B18588169906AA06BB0608F0FC
:100BE000A5C08081823009F45DC0833009F478C0EB
:100BF000813009F09BC0C40196958795880D991D99
:100C00009C013170892F992786956C01EE24FF2471
:100C1000F3014285538564857585CE010196F1E027
:100C20002F3F3F0749F0C40ED51EE61EF71EB70141
:100C3000A60102E010E01DC04C0D5D1D6E1D7F1D64
:100C40002FEF31E001E010E044DE882309F06EC0B0
:100C5000F30142855385648575854F5F5F4F6F4F04
:100C60007F4F4C0D5D1D6E1D7F1DCE01029620E055
:100C700030E02FDE882309F059C069817A81C401F0
:100C800081709070892B39F0A4E076956795AA95CC
:100C9000E1F79B0122C09B0140E050E03F704070B3
:100CA000507048C077276B2D5A2D492DF30182854E
:100CB0009385A485B585480F591F6A1F7B1F940132
:100CC0003070220F331FCE01019602E010E001DEEA
:100CD000882361F589819A819C0140E050E02AC017
:100CE000B501A40127E076956795579547952A9514
:100CF000D1F7F30182859385A485B585480F591FE7
:100D00006A1F7B1F94012F773070220F331F220F31
:100D1000331FCE01019604E010E0DBDD882331F4BF
:100D200029813A814B815C815F7004C021E030E011
:100D300040E050E0B901CA010F900F900F900F9062
:100D4000CF91DF911F910F91FF90EF90DF90CF90A7
:100D5000BF90AF909F908F907F906F900895AF92CB
:100D6000BF92CF92DF92EF92FF920F931F93CF9398
:100D7000DF935C01C0917400D0917500FC01C080CC
:100D8000D1800894C11CD11CC114D10409F48DC0B8
:100D90002485358546855785211531054105510541
:100DA00009F483C0C6018F709070892B09F078C058
:100DB0002F5F3F4F4F4F5F4F2487358746875787B9
:100DC0004085518562857385411551056105710521
:100DD00039F48C819D81C816D90608F461C065C0BC
:100DE0008A8190E001979601E4E036952795EA958F
:100DF000E1F782239323892B09F052C0CB01BA017A
:100E0000C6DE9B01AC01623071058105910510F4CD
:100E100081E04CC08E819F81A885B985281739074C
:100E20004A075B0708F041C0F501208731874287F8
:100E30005387C0917400D09175008EEFE82E8FEF2C
:100E4000F82E8FEF082F8FEF182FE20EF31E041FDE
:100E5000151F8E819F81A885B9850297A109B109C7
:100E6000E816F9060A071B0728F020E030E040E00A
:100E700050E011C02A8130E040E050E0C801B701E5
:100E80004BD69B01AC018A899B89AC89BD89280F0F
:100E9000391F4A1F5B1FF50124873587468757870F
:100EA000F501D182C08280E001C083E0DF91CF9163
:100EB0001F910F91FF90EF90DF90CF90BF90AF9078
:100EC00008952F923F924F925F926F927F928F92EE
:100ED0009F92AF92BF92CF92DF92EF92FF920F93C9
:100EE0001F93CF93DF93E82FC0917400D0917500CA
:100EF000209711F486E0FEC0898180FD02C085E064
:100F0000F9C0EA8CFB8C0C8D1D8D4E2F592FCB0117
:100F1000DA013C014D01E614F7040805190510F447
:100F200037014801EE88FF88088D198D1E8A1F8AB7
:100F3000188E198E611471048104910409F4D6C0CD
:100F40008A81A82EBB24CC24DD24B9E0AA0CBB1CCA
:100F5000CC1CDD1CBA95D1F7E114F1040105110593
:100F6000A1F117012801089421083108410851080E
:100F7000C401B3016150704080409040A6019501CA
:100F8000E4D579018A01C201B101A6019501DDD53F
:100F9000E216F30604071507C0F088279927DC013D
:100FA0008A199B09AC09BD0982219321A421B5218D
:100FB0008E8B9F8BA88FB98F681A790A8A0A9B0A31
:100FC0002AA13BA14CA15DA132C02E8D3F8D48A12D
:100FD00059A12AA33BA34CA35DA329C0CA01B9010F
:100FE000D6DD9B01AC01623071058105910508F4E5
:100FF0007FC08E819F81A885B985281739074A0748
:101000005B0708F075C02AA33BA34CA35DA38E89A0
:101010009F89A88DB98D8A0D9B1DAC1DBD1D8E8B22
:101020009F8BA88FB98F6A187B088C089D08A6141F
:10103000B704C804D90490F2EE88FF88088D198D92
:10104000E60CF71C081D191DEE8AFF8A088F198F00
:101050008090740090907500AEEFAA2EAFEFBA2E7C
:10106000AFEFCA2EAFEFDA2EA20EB31EC41ED51EEE
:10107000F40186819781A085B1850297A109B10904
:10108000A816B906CA06DB0698F5228130E040E0D2
:1010900050E0C601B50140D59B01AC01F401828945
:1010A0009389A489B589280F391F4A1F5B1F211511
:1010B000310541055105E1F0F9E016950795F794E2
:1010C000E794FA95D1F78A8190E00197AA2797FDD6
:1010D000A095BA2FE822F9220A231B232E0D3F1DCB
:1010E000401F511F2EA33FA348A759A780E002C06D
:1010F000198281E0DF91CF911F910F91FF90EF90C6
:10110000DF90CF90BF90AF909F908F907F906F9027
:101110005F904F903F902F900895AF92BF92CF92E3
:10112000DF92EF92FF920F931F93DF93CF93CDB790
:10113000DEB7AC970FB6F894DEBF0FBECDBF7C0113
:101140006B018091740090917500892B11F486E0F9
:10115000ACC0CE010196D70113969C938E93129743
:101160006115710539F083E00DE0A02EB12CAC0EB5
:10117000BD1E25C0C7018DDC98C0F70120813181DB
:101180002F70307015E0220F331F1A95E1F7C5015B
:1011900000E210E09EDB882311F081E01EC09D85F7
:1011A000992309F493C0888D953E29F09E3219F059
:1011B0008F7383FF1CC0C701D2DD882371F4D70170
:1011C0001C964D915D916D917C911F974115510534
:1011D0006105710591F6882351F0F7011486158693
:1011E00016861786833019F0882309F05EC09601B1
:1011F000275F3F4FF70184859585A685B7850097C2
:10120000A105B10509F443C0FE013D96AE014B5E58
:101210005F4F8081803251F0853009F485EED9012D
:101220008D939D013196E417F50799F78D898032EA
:1012300099F08EE2F90181939F01FE017596AE014E
:10124000485E5F4F8081803239F0D9018D939D01D6
:101250003196E417F507B1F7888DF6018087FE0116
:101260003D96448D558D668D778DD6014D935D935A
:101270006D937C931397808D918D15969C938E938F
:1012800014978689978917969C938E931697F901E0
:101290001082C70164DD833041F4D7011C961D9292
:1012A0001D921D921C921F9780E0AC960FB6F89489
:1012B000DEBF0FBECDBFCF91DF911F910F91FF9089
:1012C000EF90DF90CF90BF90AF90089583E085CFEF
:1012D0006F927F928F929F92AF92BF92CF92DF9246
:1012E000EF92FF920F931F93CF93DF93EC015B017B
:1012F0007A0103C00894E11CF11CF701808180325F
:10130000C9F38F3219F40894E11CF11C1C821D8270
:101310001E821F82F7018081813230F4CE01B9DB59
:10132000D82EF5011082BFC0A0E26A2E77247394F4
:10133000FBE08F2E912C8A0C9B1C4A815B81FA0169
:101340008BE090E001C0619201972FEF8F3F9207F1
:10135000D1F730E0CC2468E002C038E06BE0F70160
:10136000EC0DF11D2081C3942132A8F12F3299F1A7
:101370002E3211F0361728F0683069F52E3269F3F5
:101380002AC0822F81588F3118F08F558D31C0F4CB
:10139000A32FB0E0862F90E00197A817B90784F437
:1013A000F701EC0DF11D9081C394A40FB51F2C9390
:1013B000832F8F5FFA01E80FF11D90833E5FCFCF3F
:1013C000822F81568A3108F42052FA01E30FF11D71
:1013D00020833F5FC4CFFA011386213208F473865D
:1013E000CE0157DBD82E8823C1F54C855D856E85EF
:1013F0007F85288139812F703070E5E0220F331FFF
:10140000EA95E1F7C50100E210E063DA882311F004
:1014100081E022C0F5018081882309F454C0F401E1
:10142000808183FD15C0D5018A819B819C01F901D2
:101430002BE030E0215030408FEF2F3F380709F488
:1014400045C09C918081981719F411963196F2CF7E
:10145000CE0185DC882349F2D82EE3E0DE1619F5AB
:10146000EA81FB8183858823E1F01DC0F40180813E
:1014700084FF17C0EC0CF11CF50184899589A0E06C
:10148000B0E0DC0199278827228D338D40E050E0C1
:10149000822B932BA42BB52B8C839D83AE83BF8390
:1014A0004CCF94E0D92E8D2DDF91CF911F910F91CC
:1014B000FF90EF90DF90CF90BF90AF909F908F9074
:1014C0007F906F90089583E0D82ECACFEA81FB8188
:1014D0008385882359F2E7CFEF92FF920F931F93F2
:1014E000DF93CF93CDB7DEB7AC970FB6F894DEBFDE
:1014F0000FBECDBF8C01AB0180917400909175003F
:10150000892B11F486E02FC0CE010196F801938358
:1015100082833DE0E32EF12CEC0EFD1EC801B701E5
:10152000D7DE8823E9F48D858823C1F0888D84FF78
:1015300019C0F70184899589A0E0B0E0DC01992702
:101540008827228D338D40E050E0822B932BA42BF3
:10155000B52BF80184839583A683B783C80199DAF4
:10156000833009F484E0AC960FB6F894DEBF0FBE6A
:10157000CDBFCF91DF911F910F91FF90EF90089514
:10158000EF92FF920F931F93DF93CF93CDB7DEB708
:10159000EC970FB6F894DEBF0FBECDBFAC01009143
:1015A0007400109175000115110511F466E03FC03B
:1015B000F8011182CE010196988B8F876DE1E62E9E
:1015C000F12CEC0EFD1ECE010D96B70181DE682FC9
:1015D000882369F58D8D882349F188A584FD26C06F
:1015E000F70184899589A0E0B0E0DC01992788277C
:1015F000228D338D40E050E0822B932BA42BB52B12
:10160000F801868F978FA0A3B1A3F701848D958DE4
:10161000A68DB78DF801828F938FA48FB58F168A10
:10162000178A108E118E81E0818301C063E0862FBE
:10163000EC960FB6F894DEBF0FBECDBFCF91DF9111
:101640001F910F91FF90EF9008954F925F926F92CC
:101650007F928F929F92AF92BF92CF92DF92EF9242
:10166000FF920F931F93CF93DF933C016B014A01CD
:10167000C0917400D0917500FA01118210822097F8
:1016800011F486E0C7C0898180FD02C085E0C2C038
:101690002A8D3B8D4C8D5D8D8E899F89A88DB98D4E
:1016A000281B390B4A0B5B0BCB01A0E0B0E02817DD
:1016B00039074A075B0708F469015301412CE2E04E
:1016C0005E2EA0C02E893F89488D598DDA01C9014F
:1016D0009170A070B0700097A105B10509F05EC0CF
:1016E000DA01C90179E0B695A795979587957A951E
:1016F000D1F7FA80FA94F822C9F421153105410591
:10170000510529F46E8D7F8D88A199A105C06AA12C
:101710007BA18CA19DA13BDA623071058105910509
:1017200008F476C06AA37BA38CA39DA300917400E8
:10173000109175002AA13BA14CA15DA1225030401F
:1017400040405040F80186819781A085B18502977D
:10175000A109B109281739074A075B0708F058C0E3
:10176000628170E080E090E0D7D19B01AC01F8018C
:1017700082899389A489B589280F391F4A1F5B1F65
:10178000211531054105510509F442C02F0D311DC8
:10179000411D511D2EA33FA348A759A72E893F895C
:1017A0003170C201821B930B76018C159D0508F4E4
:1017B0007C016114710419F480E090E001C0C5015E
:1017C0004EA15FA168A579A5870183D8882301F57B
:1017D000C701A0E0B0E02E893F89488D598D280FC0
:1017E000391F4A1F5B1F2E8B3F8B488F598FAE0CC2
:1017F000BF1CCE18DF08F401808191818E0D9F1DE2
:1018000091838083C114D10409F05CCF80E002C0D1
:10181000198281E0DF91CF911F910F91FF90EF909E
:10182000DF90CF90BF90AF909F908F907F906F9000
:101830005F904F900895AF92BF92CF92DF92EF9258
:10184000FF920F931F93CF93DF93B82EA92E6A01B7
:101850007B012EEF31E002E010E03BD8882311F04D
:1018600023E031C0CB2DDA2D8881998185559A4AA4
:1018700011F022E028C08B2D9A2DB701A60126E396
:1018800030E002E010E025D8882339F4888199817E
:101890008654914411F420E016C08B2D9A2DB70187
:1018A000A60122E530E002E010E013D8882311F011
:1018B00021E009C020E0888199818654914409F48F
:1018C00021E081E02827822FDF91CF911F910F9196
:1018D000FF90EF90DF90CF90BF90AF9008956F9200
:1018E0007F928F929F92AF92BF92CF92DF92EF92B0
:1018F000FF920F931F93DF93CF93CDB7DEB7A497DB
:101900000FB6F894DEBF0FBECDBF5C01109275001C
:1019100010927400009709F4E5C011D880FF02C04E
:1019200082E0E5C04E010894811C911CC40140E096
:1019300050E060E070E07FDF813021F0CC24DD24D6
:10194000760119C0C40140E050E060E070E02EEB89
:1019500031E000E110E0BDD7882309F0C5C08D81DA
:10196000882309F4C3C0C984DA84EB84FC84C401ED
:10197000B701A60160DF833009F4B6C0882309F0FF
:10198000B5C0CE010196B701A6012DE030E004E21A
:1019900010E09FD7882309F0A7C08A859B85BC01EA
:1019A00080E090E0611571058105910521F4688D55
:1019B000798D8A8D9B8D2C8130E040E050E0ACD059
:1019C0003B014C018A819B81A0E0B0E0C80ED91E8A
:1019D000EA1EFB1EF501C286D386E486F586898160
:1019E00082832D813E81358324838F8198857C017C
:1019F00000E010E0E114F1040105110521F4EC8888
:101A0000FD880E891F898A819B81A0E0B0E0E81AD9
:101A1000F90A0A0B1B0BE618F70808091909B4E0C4
:101A200036952795BA95E1F7C901A0E0B0E0E81A2C
:101A3000F90A0A0B1B0BF501228130E040E050E06F
:101A4000C801B70182D02E5F3F4F4F4F5F4FF50166
:101A50002683378340875187273FFFE03F07F0E029
:101A60004F07F0E05F0710F481E001C082E0275FDC
:101A70003F4F4040504008F083E0F50180838330C1
:101A800029F488A199A1AAA1BBA109C0F501828569
:101A90009385A485B585860D971DA81DB91D8687DC
:101AA0009787A08BB18BF50184819581A4E09695F1
:101AB0008795AA95E1F7A0E0B0E0228533854485BB
:101AC0005585820F931FA41FB51F860D971DA81D56
:101AD000B91D828B938BA48BB58B1182B09275004C
:101AE000A092740080E003C081E001C087E0A4966A
:101AF0000FB6F894DEBF0FBECDBFCF91DF911F911F
:101B00000F91FF90EF90DF90CF90BF90AF909F909C
:101B10008F907F906F900895FF27EE27BB27AA270D
:101B200060FF04C0A20FB31FE41FF51F220F331F75
:101B3000441F551F969587957795679589F7009768
:101B4000760771F7CF01BD010895A1E21A2EAA1BF5
:101B5000BB1BFD010DC0AA1FBB1FEE1FFF1FA2175D
:101B6000B307E407F50720F0A21BB30BE40BF50B5A
:101B7000661F771F881F991F1A9469F760957095E3
:101B8000809590959B01AC01BD01CF010895FB01AB
:101B900051915523A9F0BF01DC014D914517411129
:101BA000E1F759F4CD010190002049F04D91401525
:101BB0004111C9F3FB014111EFCF81E090E00197A2
:061BC0000895F894FFCF28
:101BC6006F736363616C0077617600002E57415630
:021BD60000000D
:00000001FF
